{
  "_format": "hh-sol-artifact-1",
  "contractName": "ETHRankBadge",
  "sourceName": "contracts/ETHRankBadge.sol",
  "abi": [
    {
      "inputs": [
        {
          "internalType": "string",
          "name": "_tokenName",
          "type": "string"
        },
        {
          "internalType": "string",
          "name": "_tokenSymbol",
          "type": "string"
        },
        {
          "internalType": "uint256",
          "name": "_cost",
          "type": "uint256"
        },
        {
          "internalType": "uint256",
          "name": "_maxSupply",
          "type": "uint256"
        }
      ],
      "stateMutability": "nonpayable",
      "type": "constructor"
    },
    {
      "inputs": [],
      "name": "ApprovalCallerNotOwnerNorApproved",
      "type": "error"
    },
    {
      "inputs": [],
      "name": "ApprovalQueryForNonexistentToken",
      "type": "error"
    },
    {
      "inputs": [],
      "name": "ApprovalToCurrentOwner",
      "type": "error"
    },
    {
      "inputs": [],
      "name": "ApproveToCaller",
      "type": "error"
    },
    {
      "inputs": [],
      "name": "BalanceQueryForZeroAddress",
      "type": "error"
    },
    {
      "inputs": [],
      "name": "MintToZeroAddress",
      "type": "error"
    },
    {
      "inputs": [],
      "name": "MintZeroQuantity",
      "type": "error"
    },
    {
      "inputs": [],
      "name": "OwnerQueryForNonexistentToken",
      "type": "error"
    },
    {
      "inputs": [],
      "name": "TransferCallerNotOwnerNorApproved",
      "type": "error"
    },
    {
      "inputs": [],
      "name": "TransferFromIncorrectOwner",
      "type": "error"
    },
    {
      "inputs": [],
      "name": "TransferToNonERC721ReceiverImplementer",
      "type": "error"
    },
    {
      "inputs": [],
      "name": "TransferToZeroAddress",
      "type": "error"
    },
    {
      "anonymous": false,
      "inputs": [
        {
          "indexed": true,
          "internalType": "address",
          "name": "owner",
          "type": "address"
        },
        {
          "indexed": true,
          "internalType": "address",
          "name": "approved",
          "type": "address"
        },
        {
          "indexed": true,
          "internalType": "uint256",
          "name": "tokenId",
          "type": "uint256"
        }
      ],
      "name": "Approval",
      "type": "event"
    },
    {
      "anonymous": false,
      "inputs": [
        {
          "indexed": true,
          "internalType": "address",
          "name": "owner",
          "type": "address"
        },
        {
          "indexed": true,
          "internalType": "address",
          "name": "operator",
          "type": "address"
        },
        {
          "indexed": false,
          "internalType": "bool",
          "name": "approved",
          "type": "bool"
        }
      ],
      "name": "ApprovalForAll",
      "type": "event"
    },
    {
      "anonymous": false,
      "inputs": [
        {
          "indexed": true,
          "internalType": "address",
          "name": "previousOwner",
          "type": "address"
        },
        {
          "indexed": true,
          "internalType": "address",
          "name": "newOwner",
          "type": "address"
        }
      ],
      "name": "OwnershipTransferred",
      "type": "event"
    },
    {
      "anonymous": false,
      "inputs": [
        {
          "indexed": true,
          "internalType": "address",
          "name": "from",
          "type": "address"
        },
        {
          "indexed": true,
          "internalType": "address",
          "name": "to",
          "type": "address"
        },
        {
          "indexed": true,
          "internalType": "uint256",
          "name": "tokenId",
          "type": "uint256"
        }
      ],
      "name": "Transfer",
      "type": "event"
    },
    {
      "inputs": [
        {
          "internalType": "address",
          "name": "to",
          "type": "address"
        },
        {
          "internalType": "uint256",
          "name": "tokenId",
          "type": "uint256"
        }
      ],
      "name": "approve",
      "outputs": [],
      "stateMutability": "nonpayable",
      "type": "function"
    },
    {
      "inputs": [
        {
          "internalType": "address",
          "name": "owner",
          "type": "address"
        }
      ],
      "name": "balanceOf",
      "outputs": [
        {
          "internalType": "uint256",
          "name": "",
          "type": "uint256"
        }
      ],
      "stateMutability": "view",
      "type": "function"
    },
    {
      "inputs": [],
      "name": "cost",
      "outputs": [
        {
          "internalType": "uint256",
          "name": "",
          "type": "uint256"
        }
      ],
      "stateMutability": "view",
      "type": "function"
    },
    {
      "inputs": [
        {
          "internalType": "uint256",
          "name": "tokenId",
          "type": "uint256"
        }
      ],
      "name": "getApproved",
      "outputs": [
        {
          "internalType": "address",
          "name": "",
          "type": "address"
        }
      ],
      "stateMutability": "view",
      "type": "function"
    },
    {
      "inputs": [
        {
          "internalType": "address",
          "name": "owner",
          "type": "address"
        },
        {
          "internalType": "address",
          "name": "operator",
          "type": "address"
        }
      ],
      "name": "isApprovedForAll",
      "outputs": [
        {
          "internalType": "bool",
          "name": "",
          "type": "bool"
        }
      ],
      "stateMutability": "view",
      "type": "function"
    },
    {
      "inputs": [],
      "name": "maxMintAmountPerTx",
      "outputs": [
        {
          "internalType": "uint256",
          "name": "",
          "type": "uint256"
        }
      ],
      "stateMutability": "view",
      "type": "function"
    },
    {
      "inputs": [],
      "name": "maxSupply",
      "outputs": [
        {
          "internalType": "uint256",
          "name": "",
          "type": "uint256"
        }
      ],
      "stateMutability": "view",
      "type": "function"
    },
    {
      "inputs": [
        {
          "internalType": "uint256",
          "name": "_mintAmount",
          "type": "uint256"
        }
      ],
      "name": "mint",
      "outputs": [],
      "stateMutability": "payable",
      "type": "function"
    },
    {
      "inputs": [
        {
          "internalType": "uint256",
          "name": "_mintAmount",
          "type": "uint256"
        },
        {
          "internalType": "address",
          "name": "_receiver",
          "type": "address"
        }
      ],
      "name": "mintForAddress",
      "outputs": [],
      "stateMutability": "nonpayable",
      "type": "function"
    },
    {
      "inputs": [],
      "name": "name",
      "outputs": [
        {
          "internalType": "string",
          "name": "",
          "type": "string"
        }
      ],
      "stateMutability": "view",
      "type": "function"
    },
    {
      "inputs": [],
      "name": "owner",
      "outputs": [
        {
          "internalType": "address",
          "name": "",
          "type": "address"
        }
      ],
      "stateMutability": "view",
      "type": "function"
    },
    {
      "inputs": [
        {
          "internalType": "uint256",
          "name": "tokenId",
          "type": "uint256"
        }
      ],
      "name": "ownerOf",
      "outputs": [
        {
          "internalType": "address",
          "name": "",
          "type": "address"
        }
      ],
      "stateMutability": "view",
      "type": "function"
    },
    {
      "inputs": [],
      "name": "paused",
      "outputs": [
        {
          "internalType": "bool",
          "name": "",
          "type": "bool"
        }
      ],
      "stateMutability": "view",
      "type": "function"
    },
    {
      "inputs": [],
      "name": "renounceOwnership",
      "outputs": [],
      "stateMutability": "nonpayable",
      "type": "function"
    },
    {
      "inputs": [
        {
          "internalType": "address",
          "name": "from",
          "type": "address"
        },
        {
          "internalType": "address",
          "name": "to",
          "type": "address"
        },
        {
          "internalType": "uint256",
          "name": "tokenId",
          "type": "uint256"
        }
      ],
      "name": "safeTransferFrom",
      "outputs": [],
      "stateMutability": "nonpayable",
      "type": "function"
    },
    {
      "inputs": [
        {
          "internalType": "address",
          "name": "from",
          "type": "address"
        },
        {
          "internalType": "address",
          "name": "to",
          "type": "address"
        },
        {
          "internalType": "uint256",
          "name": "tokenId",
          "type": "uint256"
        },
        {
          "internalType": "bytes",
          "name": "_data",
          "type": "bytes"
        }
      ],
      "name": "safeTransferFrom",
      "outputs": [],
      "stateMutability": "nonpayable",
      "type": "function"
    },
    {
      "inputs": [
        {
          "internalType": "address",
          "name": "operator",
          "type": "address"
        },
        {
          "internalType": "bool",
          "name": "approved",
          "type": "bool"
        }
      ],
      "name": "setApprovalForAll",
      "outputs": [],
      "stateMutability": "nonpayable",
      "type": "function"
    },
    {
      "inputs": [
        {
          "internalType": "uint256",
          "name": "_cost",
          "type": "uint256"
        }
      ],
      "name": "setCost",
      "outputs": [],
      "stateMutability": "nonpayable",
      "type": "function"
    },
    {
      "inputs": [
        {
          "internalType": "bool",
          "name": "_state",
          "type": "bool"
        }
      ],
      "name": "setPaused",
      "outputs": [],
      "stateMutability": "nonpayable",
      "type": "function"
    },
    {
      "inputs": [
        {
          "internalType": "string",
          "name": "_uriPrefix",
          "type": "string"
        }
      ],
      "name": "setUriPrefix",
      "outputs": [],
      "stateMutability": "nonpayable",
      "type": "function"
    },
    {
      "inputs": [
        {
          "internalType": "string",
          "name": "_uriSuffix",
          "type": "string"
        }
      ],
      "name": "setUriSuffix",
      "outputs": [],
      "stateMutability": "nonpayable",
      "type": "function"
    },
    {
      "inputs": [
        {
          "internalType": "bytes4",
          "name": "interfaceId",
          "type": "bytes4"
        }
      ],
      "name": "supportsInterface",
      "outputs": [
        {
          "internalType": "bool",
          "name": "",
          "type": "bool"
        }
      ],
      "stateMutability": "view",
      "type": "function"
    },
    {
      "inputs": [],
      "name": "symbol",
      "outputs": [
        {
          "internalType": "string",
          "name": "",
          "type": "string"
        }
      ],
      "stateMutability": "view",
      "type": "function"
    },
    {
      "inputs": [
        {
          "internalType": "uint256",
          "name": "_tokenId",
          "type": "uint256"
        }
      ],
      "name": "tokenURI",
      "outputs": [
        {
          "internalType": "string",
          "name": "",
          "type": "string"
        }
      ],
      "stateMutability": "view",
      "type": "function"
    },
    {
      "inputs": [],
      "name": "totalSupply",
      "outputs": [
        {
          "internalType": "uint256",
          "name": "",
          "type": "uint256"
        }
      ],
      "stateMutability": "view",
      "type": "function"
    },
    {
      "inputs": [
        {
          "internalType": "address",
          "name": "from",
          "type": "address"
        },
        {
          "internalType": "address",
          "name": "to",
          "type": "address"
        },
        {
          "internalType": "uint256",
          "name": "tokenId",
          "type": "uint256"
        }
      ],
      "name": "transferFrom",
      "outputs": [],
      "stateMutability": "nonpayable",
      "type": "function"
    },
    {
      "inputs": [
        {
          "internalType": "address",
          "name": "newOwner",
          "type": "address"
        }
      ],
      "name": "transferOwnership",
      "outputs": [],
      "stateMutability": "nonpayable",
      "type": "function"
    },
    {
      "inputs": [],
      "name": "uriPrefix",
      "outputs": [
        {
          "internalType": "string",
          "name": "",
          "type": "string"
        }
      ],
      "stateMutability": "view",
      "type": "function"
    },
    {
      "inputs": [],
      "name": "uriSuffix",
      "outputs": [
        {
          "internalType": "string",
          "name": "",
          "type": "string"
        }
      ],
      "stateMutability": "view",
      "type": "function"
    },
    {
      "inputs": [
        {
          "internalType": "address",
          "name": "_owner",
          "type": "address"
        }
      ],
      "name": "walletOfOwner",
      "outputs": [
        {
          "internalType": "uint256[]",
          "name": "",
          "type": "uint256[]"
        }
      ],
      "stateMutability": "view",
      "type": "function"
    },
    {
      "inputs": [],
      "name": "withdraw",
      "outputs": [],
      "stateMutability": "nonpayable",
      "type": "function"
    }
  ],
  "bytecode": "0x60e060405260226080818152906200235b60a03980516200002991600a91602090910190620001b2565b5060408051808201909152600580825264173539b7b760d91b60209092019182526200005891600b91620001b2565b506001600e819055600f805460ff191690911790553480156200007a57600080fd5b506040516200237d3803806200237d8339810160408190526200009d9162000325565b835184908490620000b6906002906020850190620001b2565b508051620000cc906003906020840190620001b2565b5050600160005550620000df33620000fc565b6001600955620000ef826200014e565b600d5550620003dc915050565b600880546001600160a01b038381166001600160a01b0319831681179093556040519116919082907f8be0079c531659141344cd1fd0a4f28419497f9722a3daafe3b4186f6b6457e090600090a35050565b6008546001600160a01b03163314620001ad5760405162461bcd60e51b815260206004820181905260248201527f4f776e61626c653a2063616c6c6572206973206e6f7420746865206f776e6572604482015260640160405180910390fd5b600c55565b828054620001c0906200039f565b90600052602060002090601f016020900481019282620001e457600085556200022f565b82601f10620001ff57805160ff19168380011785556200022f565b828001600101855582156200022f579182015b828111156200022f57825182559160200191906001019062000212565b506200023d92915062000241565b5090565b5b808211156200023d576000815560010162000242565b634e487b7160e01b600052604160045260246000fd5b600082601f8301126200028057600080fd5b81516001600160401b03808211156200029d576200029d62000258565b604051601f8301601f19908116603f01168101908282118183101715620002c857620002c862000258565b81604052838152602092508683858801011115620002e557600080fd5b600091505b83821015620003095785820183015181830184015290820190620002ea565b838211156200031b5760008385830101525b9695505050505050565b600080600080608085870312156200033c57600080fd5b84516001600160401b03808211156200035457600080fd5b62000362888389016200026e565b955060208701519150808211156200037957600080fd5b5062000388878288016200026e565b604087015160609097015195989097509350505050565b600181811c90821680620003b457607f821691505b60208210811415620003d657634e487b7160e01b600052602260045260246000fd5b50919050565b611f6f80620003ec6000396000f3fe6080604052600436106101d85760003560e01c806362b99ad411610102578063a0712d6811610095578063d5abeb0111610064578063d5abeb0114610526578063e985e9c51461053c578063efbd73f414610585578063f2fde38b146105a557600080fd5b8063a0712d68146104b3578063a22cb465146104c6578063b88d4fde146104e6578063c87b56dd1461050657600080fd5b80637ec4a659116100d15780637ec4a6591461044a5780638da5cb5b1461046a57806394354fd01461048857806395d89b411461049e57600080fd5b806362b99ad4146103e05780636352211e146103f557806370a0823114610415578063715018a61461043557600080fd5b806318160ddd1161017a578063438b630011610149578063438b63001461036457806344a0d68a146103915780635503a0e8146103b15780635c975abb146103c657600080fd5b806318160ddd146102f257806323b872dd1461030f5780633ccfd60b1461032f57806342842e0e1461034457600080fd5b8063095ea7b3116101b6578063095ea7b31461026c57806313faede61461028e57806316ba10e0146102b257806316c38b3c146102d257600080fd5b806301ffc9a7146101dd57806306fdde0314610212578063081812fc14610234575b600080fd5b3480156101e957600080fd5b506101fd6101f836600461195a565b6105c5565b60405190151581526020015b60405180910390f35b34801561021e57600080fd5b50610227610617565b60405161020991906119cf565b34801561024057600080fd5b5061025461024f3660046119e2565b6106a9565b6040516001600160a01b039091168152602001610209565b34801561027857600080fd5b5061028c610287366004611a17565b6106ed565b005b34801561029a57600080fd5b506102a4600c5481565b604051908152602001610209565b3480156102be57600080fd5b5061028c6102cd366004611acd565b61077b565b3480156102de57600080fd5b5061028c6102ed366004611b26565b6107c5565b3480156102fe57600080fd5b5060015460005403600019016102a4565b34801561031b57600080fd5b5061028c61032a366004611b41565b610802565b34801561033b57600080fd5b5061028c61080d565b34801561035057600080fd5b5061028c61035f366004611b41565b610908565b34801561037057600080fd5b5061038461037f366004611b7d565b610923565b6040516102099190611b98565b34801561039d57600080fd5b5061028c6103ac3660046119e2565b610a65565b3480156103bd57600080fd5b50610227610a94565b3480156103d257600080fd5b50600f546101fd9060ff1681565b3480156103ec57600080fd5b50610227610b22565b34801561040157600080fd5b506102546104103660046119e2565b610b2f565b34801561042157600080fd5b506102a4610430366004611b7d565b610b41565b34801561044157600080fd5b5061028c610b90565b34801561045657600080fd5b5061028c610465366004611acd565b610bc6565b34801561047657600080fd5b506008546001600160a01b0316610254565b34801561049457600080fd5b506102a4600e5481565b3480156104aa57600080fd5b50610227610c03565b61028c6104c13660046119e2565b610c12565b3480156104d257600080fd5b5061028c6104e1366004611bdc565b610d79565b3480156104f257600080fd5b5061028c610501366004611c0f565b610e0f565b34801561051257600080fd5b506102276105213660046119e2565b610e60565b34801561053257600080fd5b506102a4600d5481565b34801561054857600080fd5b506101fd610557366004611c8b565b6001600160a01b03918216600090815260076020908152604080832093909416825291909152205460ff1690565b34801561059157600080fd5b5061028c6105a0366004611cb5565b610f2e565b3480156105b157600080fd5b5061028c6105c0366004611b7d565b611018565b60006001600160e01b031982166380ac58cd60e01b14806105f657506001600160e01b03198216635b5e139f60e01b145b8061061157506301ffc9a760e01b6001600160e01b03198316145b92915050565b60606002805461062690611cd8565b80601f016020809104026020016040519081016040528092919081815260200182805461065290611cd8565b801561069f5780601f106106745761010080835404028352916020019161069f565b820191906000526020600020905b81548152906001019060200180831161068257829003601f168201915b5050505050905090565b60006106b4826110b3565b6106d1576040516333d1c03960e21b815260040160405180910390fd5b506000908152600660205260409020546001600160a01b031690565b60006106f882610b2f565b9050806001600160a01b0316836001600160a01b0316141561072d5760405163250fdee360e21b815260040160405180910390fd5b336001600160a01b0382161480159061074d575061074b8133610557565b155b1561076b576040516367d9dca160e11b815260040160405180910390fd5b6107768383836110ec565b505050565b6008546001600160a01b031633146107ae5760405162461bcd60e51b81526004016107a590611d13565b60405180910390fd5b80516107c190600b9060208401906118ab565b5050565b6008546001600160a01b031633146107ef5760405162461bcd60e51b81526004016107a590611d13565b600f805460ff1916911515919091179055565b610776838383611148565b6008546001600160a01b031633146108375760405162461bcd60e51b81526004016107a590611d13565b6002600954141561088a5760405162461bcd60e51b815260206004820152601f60248201527f5265656e7472616e637947756172643a207265656e7472616e742063616c6c0060448201526064016107a5565b600260095560006108a36008546001600160a01b031690565b6001600160a01b03164760405160006040518083038185875af1925050503d80600081146108ed576040519150601f19603f3d011682016040523d82523d6000602084013e6108f2565b606091505b505090508061090057600080fd5b506001600955565b61077683838360405180602001604052806000815250610e0f565b6060600061093083610b41565b905060008167ffffffffffffffff81111561094d5761094d611a41565b604051908082528060200260200182016040528015610976578160200160208202803683370190505b50905060016000805b848210801561098f575060005483105b15610a5a57600083815260046020908152604091829020825160608101845290546001600160a01b0381168252600160a01b810467ffffffffffffffff1692820192909252600160e01b90910460ff16151591810182905290610a475780516001600160a01b031615610a0157805191505b876001600160a01b0316826001600160a01b03161415610a475783858481518110610a2e57610a2e611d48565b602090810291909101015282610a4381611d74565b9350505b83610a5181611d74565b9450505061097f565b509195945050505050565b6008546001600160a01b03163314610a8f5760405162461bcd60e51b81526004016107a590611d13565b600c55565b600b8054610aa190611cd8565b80601f0160208091040260200160405190810160405280929190818152602001828054610acd90611cd8565b8015610b1a5780601f10610aef57610100808354040283529160200191610b1a565b820191906000526020600020905b815481529060010190602001808311610afd57829003601f168201915b505050505081565b600a8054610aa190611cd8565b6000610b3a82611338565b5192915050565b60006001600160a01b038216610b6a576040516323d3ad8160e21b815260040160405180910390fd5b506001600160a01b031660009081526005602052604090205467ffffffffffffffff1690565b6008546001600160a01b03163314610bba5760405162461bcd60e51b81526004016107a590611d13565b610bc46000611461565b565b6008546001600160a01b03163314610bf05760405162461bcd60e51b81526004016107a590611d13565b80516107c190600a9060208401906118ab565b60606003805461062690611cd8565b80600081118015610c255750600e548111155b610c685760405162461bcd60e51b8152602060048201526014602482015273496e76616c6964206d696e7420616d6f756e742160601b60448201526064016107a5565b600d546001546000548391900360001901610c839190611d8f565b1115610cc85760405162461bcd60e51b81526020600482015260146024820152734d617820737570706c792065786365656465642160601b60448201526064016107a5565b8180600c54610cd79190611da7565b341015610d1c5760405162461bcd60e51b8152602060048201526013602482015272496e73756666696369656e742066756e64732160681b60448201526064016107a5565b600f5460ff1615610d6f5760405162461bcd60e51b815260206004820152601760248201527f54686520636f6e7472616374206973207061757365642100000000000000000060448201526064016107a5565b61077633846114b3565b6001600160a01b038216331415610da35760405163b06307db60e01b815260040160405180910390fd5b3360008181526007602090815260408083206001600160a01b03871680855290835292819020805460ff191686151590811790915590519081529192917f17307eab39ab6107e8899845ad3d59bd9653f200f220920489ca2b5937696c31910160405180910390a35050565b610e1a848484611148565b6001600160a01b0383163b15158015610e3c5750610e3a848484846114cd565b155b15610e5a576040516368d2bf6b60e11b815260040160405180910390fd5b50505050565b6060610e6b826110b3565b610ecf5760405162461bcd60e51b815260206004820152602f60248201527f4552433732314d657461646174613a2055524920717565727920666f72206e6f60448201526e3732bc34b9ba32b73a103a37b5b2b760891b60648201526084016107a5565b6000610ed96115c5565b90506000815111610ef95760405180602001604052806000815250610f27565b80610f03846115d4565b600b604051602001610f1793929190611dc6565b6040516020818303038152906040525b9392505050565b81600081118015610f415750600e548111155b610f845760405162461bcd60e51b8152602060048201526014602482015273496e76616c6964206d696e7420616d6f756e742160601b60448201526064016107a5565b600d546001546000548391900360001901610f9f9190611d8f565b1115610fe45760405162461bcd60e51b81526020600482015260146024820152734d617820737570706c792065786365656465642160601b60448201526064016107a5565b6008546001600160a01b0316331461100e5760405162461bcd60e51b81526004016107a590611d13565b61077682846114b3565b6008546001600160a01b031633146110425760405162461bcd60e51b81526004016107a590611d13565b6001600160a01b0381166110a75760405162461bcd60e51b815260206004820152602660248201527f4f776e61626c653a206e6577206f776e657220697320746865207a65726f206160448201526564647265737360d01b60648201526084016107a5565b6110b081611461565b50565b6000816001111580156110c7575060005482105b8015610611575050600090815260046020526040902054600160e01b900460ff161590565b60008281526006602052604080822080546001600160a01b0319166001600160a01b0387811691821790925591518593918516917f8c5be1e5ebec7d5bd14f71427d1e84f3dd0314c0f7b2291e5b200ac8c7c3b92591a4505050565b600061115382611338565b9050836001600160a01b031681600001516001600160a01b03161461118a5760405162a1148160e81b815260040160405180910390fd5b6000336001600160a01b03861614806111a857506111a88533610557565b806111c35750336111b8846106a9565b6001600160a01b0316145b9050806111e357604051632ce44b5f60e11b815260040160405180910390fd5b6001600160a01b03841661120a57604051633a954ecd60e21b815260040160405180910390fd5b611216600084876110ec565b6001600160a01b038581166000908152600560209081526040808320805467ffffffffffffffff1980821667ffffffffffffffff92831660001901831617909255898616808652838620805493841693831660019081018416949094179055898652600490945282852080546001600160e01b031916909417600160a01b429092169190910217835587018084529220805491939091166112ec5760005482146112ec578054602086015167ffffffffffffffff16600160a01b026001600160e01b03199091166001600160a01b038a16171781555b50505082846001600160a01b0316866001600160a01b03167fddf252ad1be2c89b69c2b068fc378daa952ba7f163c4a11628f55a4df523b3ef60405160405180910390a45b5050505050565b60408051606081018252600080825260208201819052918101919091528180600111158015611368575060005481105b1561144857600081815260046020908152604091829020825160608101845290546001600160a01b0381168252600160a01b810467ffffffffffffffff1692820192909252600160e01b90910460ff161515918101829052906114465780516001600160a01b0316156113dc579392505050565b5060001901600081815260046020908152604091829020825160608101845290546001600160a01b038116808352600160a01b820467ffffffffffffffff1693830193909352600160e01b900460ff1615159281019290925215611441579392505050565b6113dc565b505b604051636f96cda160e11b815260040160405180910390fd5b600880546001600160a01b038381166001600160a01b0319831681179093556040519116919082907f8be0079c531659141344cd1fd0a4f28419497f9722a3daafe3b4186f6b6457e090600090a35050565b6107c18282604051806020016040528060008152506116d2565b604051630a85bd0160e11b81526000906001600160a01b0385169063150b7a0290611502903390899088908890600401611e8a565b602060405180830381600087803b15801561151c57600080fd5b505af192505050801561154c575060408051601f3d908101601f1916820190925261154991810190611ec7565b60015b6115a7573d80801561157a576040519150601f19603f3d011682016040523d82523d6000602084013e61157f565b606091505b50805161159f576040516368d2bf6b60e11b815260040160405180910390fd5b805181602001fd5b6001600160e01b031916630a85bd0160e11b1490505b949350505050565b6060600a805461062690611cd8565b6060816115f85750506040805180820190915260018152600360fc1b602082015290565b8160005b8115611622578061160c81611d74565b915061161b9050600a83611efa565b91506115fc565b60008167ffffffffffffffff81111561163d5761163d611a41565b6040519080825280601f01601f191660200182016040528015611667576020820181803683370190505b5090505b84156115bd5761167c600183611f0e565b9150611689600a86611f25565b611694906030611d8f565b60f81b8183815181106116a9576116a9611d48565b60200101906001600160f81b031916908160001a9053506116cb600a86611efa565b945061166b565b61077683838360016000546001600160a01b03851661170357604051622e076360e81b815260040160405180910390fd5b836117215760405163b562e8dd60e01b815260040160405180910390fd5b6001600160a01b038516600081815260056020908152604080832080546fffffffffffffffffffffffffffffffff19811667ffffffffffffffff8083168c0181169182176801000000000000000067ffffffffffffffff1990941690921783900481168c01811690920217909155858452600490925290912080546001600160e01b031916909217600160a01b4290921691909102179055808085018380156117d357506001600160a01b0387163b15155b1561185c575b60405182906001600160a01b038916906000907fddf252ad1be2c89b69c2b068fc378daa952ba7f163c4a11628f55a4df523b3ef908290a461182460008884806001019550886114cd565b611841576040516368d2bf6b60e11b815260040160405180910390fd5b808214156117d957826000541461185757600080fd5b6118a2565b5b6040516001830192906001600160a01b038916906000907fddf252ad1be2c89b69c2b068fc378daa952ba7f163c4a11628f55a4df523b3ef908290a48082141561185d575b50600055611331565b8280546118b790611cd8565b90600052602060002090601f0160209004810192826118d9576000855561191f565b82601f106118f257805160ff191683800117855561191f565b8280016001018555821561191f579182015b8281111561191f578251825591602001919060010190611904565b5061192b92915061192f565b5090565b5b8082111561192b5760008155600101611930565b6001600160e01b0319811681146110b057600080fd5b60006020828403121561196c57600080fd5b8135610f2781611944565b60005b8381101561199257818101518382015260200161197a565b83811115610e5a5750506000910152565b600081518084526119bb816020860160208601611977565b601f01601f19169290920160200192915050565b602081526000610f2760208301846119a3565b6000602082840312156119f457600080fd5b5035919050565b80356001600160a01b0381168114611a1257600080fd5b919050565b60008060408385031215611a2a57600080fd5b611a33836119fb565b946020939093013593505050565b634e487b7160e01b600052604160045260246000fd5b600067ffffffffffffffff80841115611a7257611a72611a41565b604051601f8501601f19908116603f01168101908282118183101715611a9a57611a9a611a41565b81604052809350858152868686011115611ab357600080fd5b858560208301376000602087830101525050509392505050565b600060208284031215611adf57600080fd5b813567ffffffffffffffff811115611af657600080fd5b8201601f81018413611b0757600080fd5b6115bd84823560208401611a57565b80358015158114611a1257600080fd5b600060208284031215611b3857600080fd5b610f2782611b16565b600080600060608486031215611b5657600080fd5b611b5f846119fb565b9250611b6d602085016119fb565b9150604084013590509250925092565b600060208284031215611b8f57600080fd5b610f27826119fb565b6020808252825182820181905260009190848201906040850190845b81811015611bd057835183529284019291840191600101611bb4565b50909695505050505050565b60008060408385031215611bef57600080fd5b611bf8836119fb565b9150611c0660208401611b16565b90509250929050565b60008060008060808587031215611c2557600080fd5b611c2e856119fb565b9350611c3c602086016119fb565b925060408501359150606085013567ffffffffffffffff811115611c5f57600080fd5b8501601f81018713611c7057600080fd5b611c7f87823560208401611a57565b91505092959194509250565b60008060408385031215611c9e57600080fd5b611ca7836119fb565b9150611c06602084016119fb565b60008060408385031215611cc857600080fd5b82359150611c06602084016119fb565b600181811c90821680611cec57607f821691505b60208210811415611d0d57634e487b7160e01b600052602260045260246000fd5b50919050565b6020808252818101527f4f776e61626c653a2063616c6c6572206973206e6f7420746865206f776e6572604082015260600190565b634e487b7160e01b600052603260045260246000fd5b634e487b7160e01b600052601160045260246000fd5b6000600019821415611d8857611d88611d5e565b5060010190565b60008219821115611da257611da2611d5e565b500190565b6000816000190483118215151615611dc157611dc1611d5e565b500290565b600084516020611dd98285838a01611977565b855191840191611dec8184848a01611977565b8554920191600090600181811c9080831680611e0957607f831692505b858310811415611e2757634e487b7160e01b85526022600452602485fd5b808015611e3b5760018114611e4c57611e79565b60ff19851688528388019550611e79565b60008b81526020902060005b85811015611e715781548a820152908401908801611e58565b505083880195505b50939b9a5050505050505050505050565b6001600160a01b0385811682528416602082015260408101839052608060608201819052600090611ebd908301846119a3565b9695505050505050565b600060208284031215611ed957600080fd5b8151610f2781611944565b634e487b7160e01b600052601260045260246000fd5b600082611f0957611f09611ee4565b500490565b600082821015611f2057611f20611d5e565b500390565b600082611f3457611f34611ee4565b50069056fea2646970667358221220d955e12b4b35a9120359b06965c5ad808a8e50d1f109fe8fe011bc0a81e2eb3364736f6c6343000809003368747470733a2f2f65746872616e6b2e696f2f6170692f6d657461646174612f342f",
  "linkReferences": {},
  "deployedLinkReferences": {}
}